:020000040800F2
:1000000000000220592A0008550800085708000877
:10001000590800085B0800085D080008000000009F
:10002000000000000000000000000000E1270008C0
:100030005F0800080000000081280008E52800088B
:10004000A92A0008A92A0008A92A0008A92A000844
:10005000A92A0008A92A0008A92A0008A92A000834
:10006000A92A0008A92A0008A92A0008A92A000824
:10007000A92A0008A92A0008A92A0008A92A000814
:10008000A92A0008A92A0008A92A0008610800086E
:1000900071080008A92A0008A92A0008A92A00084E
:1000A000A92A0008A92A0008A92A0008A92A0008E4
:1000B000A92A0008A92A0008A92A0008A92A0008D4
:1000C000A92A0008A92A0008A92A0008A92A0008C4
:1000D000A92A0008A92A0008A92A0008A92A0008B4
:1000E000A92A0008A92A0008A92A0008A92A0008A4
:1000F000A92A0008A92A0008A92A0008A92A000894
:10010000A92A0008A92A0008A92A0008A92A000883
:10011000A92A0008A92A000881080008A92A0008BD
:10012000A92A0008A92A0008A92A0008A92A000863
:10013000A92A00080000000000000000A92A000809
:10014000A92A0008A92A0008A92A0008A92A000843
:10015000A92A0008A92A0008A92A0008A92A000833
:10016000A92A0008A92A0008A92A0008A92A000823
:10017000A92A0008A92A00080000000000000000C9
:08018000A92A0008A92A0008C1
:1001900010B5054C237833B9044B13B10448AFF3C1
:1001A00000800123237010BD3C04002000000000EB
:1001B000A42C000808B5034B1BB103490348AFF357
:1001C000008008BD0000000040040020A42C0008AE
:1001D00053B94AB9002908BF00281CBF4FF0FF31AE
:1001E0004FF0FF3000F072B9ADF1080C6DE904CEAC
:1001F00000F006F8DDF804E0DDE9022304B0704702
:100200002DE9F047089E04468846002B4BD18A42D0
:10021000154667D9B2FA82F24AB1C2F1200701FA53
:1002200002F320FA07F7954047EA030894404FEAA3
:10023000154E230CB8FBFEF71FFA85FC0EFB178842
:1002400043EA084307FB0CF1994209D9EB1807F17F
:10025000FF3080F01B81994240F21881023F2B440D
:100260005B1AA4B2B3FBFEF00EFB103344EA034466
:1002700000FB0CFCA44509D92C1900F1FF3380F0D8
:100280000781A44540F2048102382C4440EA07402B
:10029000A4EB0C0400271EB1D4400023C6E90043A0
:1002A0003946BDE8F0878B4209D9002E00F0EB807B
:1002B0000027C6E9000138463946BDE8F087B3FAA1
:1002C00083F7002F47D18B4202D3824200F2FA809B
:1002D000841A61EB030301209846002EE0D0C6E9A2
:1002E0000048DDE702B9FFDEB2FA82F2002A40F0F0
:1002F0008F80491B4FEA154E1FFA85F80127B1FB85
:10030000FEFC230C0EFB1C1143EA014308FB0CF11D
:10031000994207D9EB180CF1FF3002D2994200F252
:10032000CD808446591AA3B2B1FBFEF00EFB101427
:1003300043EA044408FB00F8A04507D92C1900F152
:10034000FF3302D2A04500F2B6801846A4EB0804A1
:1003500040EA0C409FE7C7F1200CBB4022FA0CFE9C
:100360004EEA030E01FA07F420FA0CF521FA0CF319
:100370004FEA1E482543B3FBF8F92C0C08FB193350
:100380001FFA8EFA44EA034309FB0AF49C4202FA7C
:1003900007F200FA07F10BD91EEB030309F1FF3056
:1003A00080F087809C4240F28480A9F10209734466
:1003B0001B1BADB2B3FBF8F008FB103345EA034456
:1003C00000FB0AFAA24508D91EEB040400F1FF3332
:1003D0006BD2A24569D90238744440EA0940A0FBB7
:1003E0000289A4EB0A044C45C2464B4654D351D073
:1003F000002E69D0B1EB0A0564EB030404FA0CFC8F
:10040000FD40FC404CEA0505C6E90054002747E7DB
:10041000C2F1200320FA03F7954001FA02F021FA15
:1004200003F34FEA154E3843010CB3FBFEF71FFAF6
:1004300085F80EFB173341EA034107FB08F38B42B3
:1004400004FA02F407D9691807F1FF3C2FD28B4256
:100450002DD9023F2944CB1A81B2B3FBFEF00EFB2B
:10046000103341EA034100FB08F38B4207D96918B6
:1004700000F1FF3C17D28B4215D902382944C91A22
:1004800040EA07473BE73746304609E70746E7E6D5
:100490001846FBE64145ABD2B8EB020A69EB0E0207
:1004A00001381346A4E76046E9E7184695E7674632
:1004B000D1E781467CE702382C4447E7ACF1020CD7
:1004C0002B442FE7384608E73746E9E6704700BF78
:1004D00008B50268034B9A4200D008BD01F0B8F895
:1004E000FBE700BF0010004072B6FEE700B595B014
:1004F0003022002108A802F0FDFA002303930493A0
:1005000005930693079301931E4A116C41F08051A5
:100510001164126C02F080520192019A02931A4AFD
:10052000116841F480411160126802F48042029225
:10053000029A0222089201210B9110210C910E9235
:100540000F9308231093A82311931292042313935B
:1005500008A800F0F1FB88B90F230393022304934A
:10056000002305934FF4A05306930793052103A896
:1005700000F032FE20B915B05DF804FBFFF7B4FFC0
:10058000FFF7B2FF003802400070004008B501F0EC
:1005900045F8FFF7ABFF00F00BF800F04DF800F066
:1005A000AFF800F005F900F031F801F055FFFEE773
:1005B00082B0002100910B4B1A6B42F001021A63CA
:1005C0001A6B02F001020092009A01911A6B42F03C
:1005D00004021A631B6B03F004030193019B02B036
:1005E000704700BF0038024008B5012001F06FFFDE
:1005F000FBE70000034B0360034B0B608023136099
:10060000704700BF580600205804002030B589B05C
:1006100001AC074D0FCD0FC495E8070084E8070033
:10062000002101A801F01DFF024B186009B030BD88
:10063000BC2C0008FC43002008B50B480B4B0360A2
:100640001023436000238360C3600361436103762A
:1006500043768376C3760377437700F08DF900B94C
:1006600008BDFFF741FFFBE70044002000640040A5
:1006700010B588B000230393049305930693079362
:1006800002681D4B9A4201D008B010BD00240194AD
:1006900003F5EA331A6C42F000721A641A6C02F025
:1006A00000720192019A02941A6B42F001021A63DD
:1006B0001B6B03F001030293029B4FF4C05303939F
:1006C00002230493032306930923079303A90B48EA
:1006D00000F066FE22460521132000F05DFF132086
:1006E00000F08EFF22460521142000F055FF142053
:1006F00000F086FFC8E700BF006400400000024031
:1007000008B50D480D4B03604FF48273436000231E
:100710008360C360036143614FF400728261C3610F
:100720000362436283620A23C36200F0A3FF00B93D
:1007300008BDFFF7D9FEFBE728440020003C00403D
:1007400000B589B0002303930493059306930793A0
:100750000268154B9A4202D009B05DF804FB0021F3
:10076000019103F5FE331A6C42F400421A641A6CCC
:1007700002F400420192019A02911A6B42F00402C3
:100780001A631B6B03F004030293029B4FF4E053C4
:10079000039302230493032306930623079303A9D9
:1007A000024800F0FDFDD7E7003C00400008024091
:1007B00000B587B00023029303930493059300933D
:1007C00001931648164A026053224260836040F249
:1007D000E732C26003614361836101F043F998B974
:1007E00006A94FF4805341F8103D0C4801F071F90F
:1007F00068B90023009301936946084801F0E4F9C1
:1008000040B907B05DF804FBFFF76EFEE8E7FFF7BD
:100810006BFEEEE7FFF768FEF3E700BF80440020C1
:10082000000001400268094B9A4200D0704782B034
:1008300000230193064B5A6C42F001025A645B6C30
:1008400003F001030193019B02B0704700000140D7
:1008500000380240FEE7FEE7FEE7FEE7FEE77047EE
:1008600008B5024800F03BF908BD00BF0044002075
:1008700008B5024800F033F908BD00BF004400206D
:1008800008B5024800F0CCFF08BD00BFC8440020F6
:1008900000B583B0002200920D4B596C41F48041A9
:1008A0005964596C01F48041009100990192196CCE
:1008B00041F0805119641B6C03F080530193019B3C
:1008C0000F216FF0010000F067FE03B05DF804FB3C
:1008D0000038024030B589B0044600230193214B13
:1008E0001A6C42F010021A641B6C03F0100301939F
:1008F000019B02A903A800F035FD069BC3B900F0D7
:1009000021FD194BA3FB00239B0C013B1748184A00
:10091000026040F2E732C2604360002303618360FB
:10092000836101F09FF8054630B1284609B030BD1B
:1009300000F008FD4000E4E70C4800F029FF054600
:100940000028F2D1362000F05BFE0F2C01D90125E2
:10095000EBE700222146362000F01EFE054B1C600E
:10096000E3E700BF0038024083DE1B43C844002099
:100970000010004004000020002800F0A18038B5DD
:10098000044690F82030D3B12268136843F0010385
:10099000136000F069FE054623685A6812F0010FE3
:1009A00010D100F061FE401B0A28F5D9636A43F4B8
:1009B00000336362052384F82030012038BDFFF73F
:1009C00057FEE1E71A6822F002021A6000F04CFEBE
:1009D000054623685A6812F0020F0DD000F044FE5D
:1009E000401B0A28F5D9636A43F400336362052388
:1009F00084F820300120E1E7227E012A3DD01A68E8
:100A000022F080021A60637E012B3BD022681368BB
:100A100023F040031360A37E012B39D022681368B2
:100A200023F020031360E37E012B37D02268136884
:100A300043F010031360237F012B35D02268136825
:100A400023F008031360637F012B33D022681368FF
:100A500023F004031360A368E2681343226913437D
:100A6000626913436268013A21681343CB61002035
:100A70006062012384F82030A0E71A6842F0800207
:100A80001A60C0E72268136843F040031360C2E7AE
:100A90002268136843F020031360C4E722681368D8
:100AA00023F010031360C6E72268136843F00803BD
:100AB0001360C8E72268136843F004031360CAE7B1
:100AC0000120704770477047704770477047704704
:100AD00070477047704770477047704770472DE9FF
:100AE000F84F054603685C695F689E68D3F80C9010
:100AF000D3F81080D3F818A014F0010F5AD016F0D4
:100B0000010F17D001229A6016F0020F08D116F0DB
:100B1000040F30D116F0080F07D04FF4805B0BE0C4
:100B2000FFF7D0FF4FF0000B06E0FFF7CEFF4FF0CE
:100B3000000B01E04FF0000B16F4807F0BD02B6808
:100B40004FF480729A6016F4007F17D116F4806F0C
:100B500018D04BF4005B16F4803F2DD02B684FF477
:100B600080329A6016F4003F16D116F4802F17D009
:100B70004BF4004B20E04FF4006BDDE72846FFF715
:100B8000A2FFE8E716F4006F02D04BF4804BE2E7D7
:100B90002846FFF79BFFDEE72846FFF795FF0BE0AF
:100BA00016F4002F02D04BF4803B05E02846FFF7F7
:100BB0008EFF01E04FF0000B14F0080F07D019F082
:100BC000100F04D04BF4007B2B681022DA6014F075
:100BD000040F02D019F0080F60D114F0020F04D0F6
:100BE0002B68DB6813F0030F5FD114F0400F07D0C0
:100BF00018F0100F04D04BF4806B2B6810221A6190
:100C000014F0200F02D018F0080F52D114F0100F7A
:100C100004D02B681B6913F0030F51D114F4003F6B
:100C200002D017F0100F4FD114F4803F02D017F00C
:100C3000080F50D114F4004F67D017F0040F61D0A3
:100C400014F4807F04D01AF0010F01D04BF0010B97
:100C500014F4007F04D01AF0020F01D04BF0020B05
:100C600014F4806F04D01AF0040F01D04BF0040B81
:100C700014F4006F46D01AF0700A43D0BAF1300F66
:100C800048D02FD9BAF1500F47D0BAF1600F47D0F2
:100C9000BAF1400F31D14BF0400B2EE02B68082207
:100CA000DA602846FFF715FF97E72846FFF710FFA1
:100CB0009BE72B6808221A612846FFF70CFFA5E77F
:100CC0002846FFF707FFA9E72B6810225A6028463D
:100CD000FFF702FFA8E72B6808225A602846FFF7B3
:100CE000FCFEA7E7BAF1100F05D0BAF1200F04D12E
:100CF0004BF0100B01E04BF0080B2A68936923F0CE
:100D0000700393612B6804225A60BBF1000F0AD173
:100D1000BDE8F88F4BF0200BEFE74BF0800BECE7D2
:100D20004BF4807BE9E76B6A43EA0B036B6228466E
:100D3000FFF7D4FEECE70000002800F0E98170B571
:100D400082B00446036813F0010F3BD0A74B9B68A9
:100D500003F00C03042B2CD0A44B9B6803F00C0372
:100D6000082B21D06368B3F5803F4FD0B3F5A02F97
:100D700052D09E4B1A6822F480321A601A6822F40C
:100D800080221A606368002B50D000F06DFC05468D
:100D9000964B1B6813F4003F14D100F065FC401B18
:100DA0006428F5D90320B8E1904B5B6813F4800FF9
:100DB000D8D08E4B1B6813F4003F03D06368002B20
:100DC00000F0A881236813F0020F55D0874B9B6871
:100DD00013F00C0F3ED0854B9B6803F00C03082BDF
:100DE00033D0E368002B68D0814B01221A6000F0F9
:100DF0003BFC05467D4B1B6813F0020F54D100F0FD
:100E000033FC401B0228F5D9032086E1774A13689A
:100E100043F480331360B5E7744B1A6842F48022C0
:100E20001A601A6842F480321A60ABE700F01CFCCA
:100E300005466E4B1B6813F4003FC3D000F014FC52
:100E4000401B6428F5D9032067E1684B5B6813F405
:100E5000800FC6D1654B1B6813F0020F04D0E36806
:100E6000012B01D0012058E1604A136823F0F803F8
:100E7000216943EAC1031360236813F0080F40D0CF
:100E8000636963B35B4B01221A6000F0EDFB05461A
:100E9000564B5B6F13F0020F33D100F0E5FB401BA4
:100EA0000228F5D9032038E1504A136823F0F803EB
:100EB000216943EAC1031360DEE74D4B00221A604B
:100EC00000F0D2FB0546494B1B6813F0020FD3D04C
:100ED00000F0CAFB401B0228F5D903201DE1454B59
:100EE00000221A6000F0C0FB0546404B5B6F13F018
:100EF000020F06D000F0B8FB401B0228F5D90320F2
:100F00000BE1236813F0040F79D0384B1B6C13F0FE
:100F1000805F33D100230193344B1A6C42F080522E
:100F20001A641B6C03F080530193019B0125324B23
:100F30001B6813F4807F23D0A368012B34D0052BCA
:100F400038D02A4B1A6F22F001021A671A6F22F06A
:100F500004021A67A368002B36D000F085FB064612
:100F6000224B1B6F13F0020F48D100F07DFB801B5A
:100F700041F288339842F3D90320CEE00025D6E72A
:100F80001D4A136843F48073136000F06DFB06463E
:100F9000194B1B6813F4807FCED100F065FB801BDA
:100FA0000228F5D90320B8E0104A136F43F001037B
:100FB0001367CFE70D4B1A6F42F004021A671A6FDE
:100FC00042F001021A67C5E700F04EFB0646074BE8
:100FD0001B6F13F0020F11D000F046FB801B41F293
:100FE00088339842F3D9032097E000BF00380240CD
:100FF00000004742800E474200700040EDB9A369EF
:10100000002B00F08980484A926802F00C02082AFE
:1010100051D0022B17D0454B00221A6000F024FB60
:101020000446414B1B6813F0007F42D000F01CFBCC
:10103000001B0228F5D903206FE03B4A136C23F014
:1010400080531364DBE7394B00221A6000F00CFB7D
:101050000546354B1B6813F0007F06D000F004FBFB
:10106000401B0228F5D9032057E0E369226A1343A5
:10107000626A43EA8213A26A5208013A43EA0243CF
:10108000E26A43EA0263284A5360284B01221A604D
:1010900000F0EAFA0446244B1B6813F0007F06D1E7
:1010A00000F0E2FA001B0228F5D9032035E0002009
:1010B00033E0002031E0012B31D01B4B5B6803F49F
:1010C0008001E269914201D0012026E003F03F0255
:1010D000216A8A4201D001201FE0616A47F6C0728E
:1010E0001A40B2EB811F01D0012016E003F4403119
:1010F000A26A5208013AB1EB024F01D001200CE084
:1011000003F07063E26AB3EB026F0AD0012004E0DF
:1011100001207047012000E0002002B070BD0120D6
:10112000FBE70020F9E700BF0038024060004742BB
:10113000264B9B6803F00C03042B44D0082B01D0F2
:10114000234870472DE9F04B204B5A6802F03F02CC
:101150005B6813F4800F13D01C4B5968C1F38811DE
:1011600000231C48A1FB0001FFF732F8174B5B6816
:10117000C3F3014301335B00B0FBF3F0BDE8F08B38
:10118000124B5B68C3F388131E4600275C010025E1
:10119000E41A65EB0705A90141EA9461A001001B6F
:1011A00061EB0501CB0043EA5073C400A01943EB87
:1011B00007018B0243EA905384022046194600231C
:1011C000FFF706F8D2E70348704700BF0038024037
:1011D0000024F40040787D01002800F09E8070B566
:1011E0000446504B1B6803F007038B4209D2CBB275
:1011F0004C4A1370136803F007038B4201D001209F
:1012000070BD236813F0020F17D013F0040F04D041
:10121000454A936843F4E0539360236813F0080F42
:1012200004D0414A936843F4604393603E4A936814
:1012300023F0F003A068034393600D46236813F086
:10124000010F32D06368012B21D09A1E012A25D9C3
:10125000354A126812F0020F61D033498A6822F0D1
:10126000030213438B6000F0FFF906462E4B9B6888
:1012700003F00C036268B3EB820F16D000F0F4F9B0
:10128000801B41F288339842F0D90320B8E7264A00
:10129000126812F4003FE0D10120B1E7224A12683F
:1012A00012F0007FD9D10120AAE71E4B1B6803F082
:1012B0000703AB4209D9EAB21A4B1A701B6803F054
:1012C0000703AB4201D001209AE7236813F0040F13
:1012D00006D0154A936823F4E053E1680B4393600A
:1012E000236813F0080F07D00F4A936823F4604374
:1012F000216943EAC1039360FFF71AFF0A4B9B6819
:10130000C3F30313094AD35CD840094B1860094B57
:101310001868FFF7DFFA002072E70120704701200C
:101320006EE700BF003C024000380240E42C000899
:101330000800002004000020014B1868704700BF1F
:101340000800002008B5FFF7F7FF044B9B68C3F3C4
:101350008223034AD35CD84008BD00BF0038024056
:10136000F42C00080F2303600B4B9A6802F0030271
:1013700042609A6802F0F00282609A6802F4E052D9
:10138000C2609B68DB0803F4E0530361034B1B68F6
:1013900003F007030B60704700380240003C024036
:1013A00000230F2B00F2DC80F0B482B05DE0866891
:1013B0005F000324BC4026EA0406CC68BC403443EA
:1013C0008460466826EA02064C68C4F300129A401C
:1013D0003243426056E0DC08083450F8247003F0D1
:1013E000070296000F22B24027EA02070A69B240BC
:1013F0003A4340F8242059E0072200E00022B2409E
:101400003A430234574E46F82420574A9468EA4338
:1014100002EA04064F6817F4801F01D045EA04066B
:10142000514CA660E46802EA04064F6817F4001FF6
:1014300001D045EA04064C4CE660646802EA040602
:101440004F6817F4003F01D045EA0406464C666039
:10145000246822404E6816F4803F01D045EA040219
:10146000414C226001330F2B77D801229A400C683F
:1014700004EA0205AA42F5D14C6804F00304013CD9
:10148000012C94D94A6802F00302032A09D0C468E7
:101490005E000322B24024EA02048A68B24022437A
:1014A000C2604A6802F00302022A94D004685E0017
:1014B0000322B24024EA02044A6802F00302B24066
:1014C000224302604A6812F4403FCBD000220192CE
:1014D000264A546C44F480445464526C02F48042B2
:1014E0000192019A9C08A61C1E4A52F8267003F02D
:1014F000030296000F22B24027EA02071C4A9042DC
:101500003FF47CAF02F5806290421AD002F580620F
:10151000904218D002F58062904216D002F58062A7
:10152000904214D002F58062904212D002F580629F
:10153000904210D002F5806290423FF45DAF0822E5
:101540005DE701225BE7022259E7032257E7042205
:1015500055E7052253E7062251E702B0F0BC704779
:10156000704700BF00380140003C01400038024095
:1015700000000240074AD36823F4E0631B041B0CFD
:10158000000200F4E060184340F0BF6040F4003017
:10159000D060704700ED00E030B4174BDB68C3F358
:1015A0000223C3F10704042C28BF04241D1D062DAB
:1015B00018D9033B4FF0FF3505FA04F421EA040182
:1015C000994005FA03F322EA0303194300280BDBD1
:1015D0000901C9B200F1604000F5614080F80013D4
:1015E00030BC70470023E5E700F00F000901C9B2E5
:1015F000024B1954F4E700BF00ED00E014ED00E0E9
:10160000002807DB00F01F02400901239340024A33
:1016100042F82030704700BF00E100E008B50B4BF6
:101620001A6842F400721A601A6842F480621A6002
:101630001A6842F480721A600320FFF79BFF0F20A4
:10164000FFF748F9FFF724F9002008BD003C0240ED
:10165000034A1168034B1B780B441360704700BFAB
:101660001045002000000020014B1868704700BFA3
:101670001045002000285AD010B50446436A33B9FB
:101680004368B3F5827F05D00023C36102E00023E5
:10169000036143610023A36294F85130002B40D0D2
:1016A000022384F851302268136823F0400313604A
:1016B000636803F48273A26802F404421343E2688D
:1016C00002F400621343226902F0020213436269CA
:1016D00002F001021343A26902F400721343E269AB
:1016E00002F038021343226A02F080021343A26A16
:1016F00002F40052216813430B60638B03F0040370
:10170000626A02F01002216813434B602268D369B9
:1017100023F40063D36100206065012384F8513015
:1017200010BD84F850302046FFF70AF8B8E70120D2
:10173000704710B4036A046A24F0010404628469E7
:1017400024F0F00444EA021223F00A030B438261FE
:1017500003625DF8044B704710B4036A23F0100372
:1017600003628469036A24F4704444EA023223F079
:10177000A00343EA0113826103625DF8044B7047E2
:10178000836823F07003194341F0070181607047BB
:1017900090F83D30DBB2012B01D0012070470223CD
:1017A00080F83D300268D36843F00103D3600368DA
:1017B000184A934220D0B3F1804F1DD0A2F57C424D
:1017C000934219D002F58062934215D002F58062EF
:1017D000934211D002F5784293420DD002F5705237
:1017E000934209D0A2F59432934205D01A6842F090
:1017F00001021A60002070479A6802F00702062A68
:1018000005D01A6842F001021A60002070470020DB
:10181000704700BF00000140704770477047704735
:1018200010B5044603681A6912F0020F11D0DA6885
:1018300012F0020F0DD06FF002021A61012303773C
:1018400003689B6913F0030F70D0FFF7E6FF0023D6
:10185000237723681A6912F0040F12D0DA6812F0A5
:10186000040F0ED06FF004021A610223237723685D
:101870009B6913F4407F5FD02046FFF7CEFF002323
:10188000237723681A6912F0080F12D0DA6812F071
:10189000080F0ED06FF008021A6104232377236823
:1018A000DB6913F0030F4ED02046FFF7B6FF00238D
:1018B000237723681A6912F0100F12D0DA6812F039
:1018C000100F0ED06FF010021A61082323772368DF
:1018D000DB6913F4407F3DD02046FFF79EFF0023D5
:1018E000237723681A6912F0010F03D0DA6812F027
:1018F000010F36D123681A6912F0800F03D0DA681D
:1019000012F0800F34D123681A6912F0400F03D00F
:10191000DA6812F0400F32D123681A6912F0200FF2
:1019200003D0DA6812F0200F30D110BDFFF774FF3A
:101930002046FFF773FF8AE72046FFF76DFF20463A
:10194000FFF76CFF9BE72046FFF766FF2046FFF797
:1019500065FFACE72046FFF75FFF2046FFF75EFF1D
:10196000BDE76FF001021A612046FEF7B1FDC1E745
:101970006FF080021A61204600F06BF9C3E76FF048
:1019800040021A612046FFF74AFFC5E76FF02002C8
:101990001A61204600F05CF9C7E700000368304A8E
:1019A000904212D0B0F1804F0FD0A2F57C4290420D
:1019B0000BD002F58062904207D002F5806290421F
:1019C00003D002F57842904203D123F070034A68B5
:1019D0001343234A90422AD0B0F1804F27D0A2F57A
:1019E0007C42904223D002F5806290421FD002F5E3
:1019F000806290421BD002F57842904217D002F5E7
:101A00007052904213D002F5806290420FD002F5DE
:101A1000806290420BD0A2F59832904207D002F536
:101A20008062904203D002F58062904203D123F499
:101A30004073CA68134323F080034A691343036069
:101A40008B68C3620B688362054B984203D003F531
:101A50008063984201D10B6903630123436170479E
:101A60000000014038B310B5044690F83D30EBB1AA
:101A7000022384F83D30211D2068FFF78FFF0123EA
:101A800084F8463084F83E3084F83F3084F84030A3
:101A900084F8413084F8423084F8433084F844308C
:101AA00084F8453084F83D30002010BD80F83C308B
:101AB000FEF7B8FEDCE70120704710B4846824F418
:101AC0007F4442EA03230B43234383605DF8044BC6
:101AD000704790F83C30012B73D010B504460123B9
:101AE00080F83C30022380F83D300268936823F48C
:101AF0007F4323F0770393600B68402B56D011D9B6
:101B0000702B3BD01FD8502B45D0602B19D1CA6801
:101B100049680068FFF720FE60212068FFF730FE6B
:101B2000002024E0102B04D009D9202B01D0302B29
:101B300007D119462068FFF723FE002017E0002B8D
:101B4000F7D0012013E0B3F5805F0FD0B3F5005F4D
:101B5000F7D1CB684A6889680068FFF7AEFF226852
:101B6000936843F480439360002000E00020012349
:101B700084F83D30002384F83C3010BDCB684A68BF
:101B800089680068FFF799FF2268936843F077033C
:101B900093600020EBE7CA6849680068FFF7C9FD59
:101BA00050212068FFF7ECFD0020E0E7CA68496893
:101BB0000068FFF7BEFD40212068FFF7E1FD00202F
:101BC000D5E702207047000090F83C30012B3BD055
:101BD00030B4012380F83C30022380F83D300368A4
:101BE0005C689D6824F070040A6822435A600368A8
:101BF000164A93421AD0B3F1804F17D0A2F57C4217
:101C0000934213D002F5806293420FD002F58062B6
:101C100093420BD002F57842934207D002F57052FE
:101C2000934203D0A2F59432934204D125F080056B
:101C30004A6815439D60012380F83D30002380F8F9
:101C40003C30184630BC704702207047000001400D
:101C500070477047034AD2F8883043F47003C2F8E3
:101C60008830704700ED00E000F1080343604FF05A
:101C7000FF328260C360036100230360704700236A
:101C80000361704743684B609A688A609A68516044
:101C900099600861036801330360704730B40D68D0
:101CA000B5F1FF3F02D000F1080202E0026904E052
:101CB0001A4653681C68AC42FAD953684B60996065
:101CC0008A605160086103680133036030BC70476B
:101CD00003694268816891608268416851605A680E
:101CE000824206D0002202611A68013A1A6018681E
:101CF000704782685A60F5E7084B1B681B683BB168
:101D0000064B1B68DB68DB685A68054B1A60704736
:101D1000034B4FF0FF321A60704700BFB00600203F
:101D2000800700202DE9F04780469946089D099FCD
:101D30000A9C266B02F18042013A06EB820626F0ED
:101D4000070689B30A4600230F2B07D8D05CE11899
:101D500081F83400D15C09B10133F5E7002384F840
:101D60004330062D00D90625E56265644FF0000A70
:101D7000C4F848A0201DFFF782FF04F11800FFF708
:101D80007EFF2461C5F10705A5616462C4F84CA01B
:101D900084F850A04A464146304600F005FD2060D8
:101DA00007B13C60BDE8F087002384F83430D8E701
:101DB00038B5002407E004EB840293000E48184471
:101DC000FFF752FF0134062CF5D90C4D2846FFF7DA
:101DD0004BFF0B4C2046FFF747FF0A48FFF744FF35
:101DE0000948FFF741FF0948FFF73EFF084B1D6018
:101DF000084B1C6038BD00BFB80600205807002003
:101E00006C0700208C070020B8070020A4070020E2
:101E1000B0060020B406002010B5044600F0F2FC25
:101E2000204A1368013313601F4B1B685BB11F4BC3
:101E30001B686BB91C4B1B68DA6AE36A9A4207D8C5
:101E4000194B1C6004E0184B1C601368012B26D052
:101E5000174A136801331360E36A01229A40154957
:101E6000086802430A6003EB83039A00211D1248AD
:101E70001044FFF707FF00F0E7FC0C4B1B686BB149
:101E8000094B1B68DA6AE36A9A4207D20B4B4FF0A0
:101E900080521A60BFF34F8FBFF36F8F10BDFFF7F3
:101EA00087FFD5E744070020AC060020A0070020EC
:101EB0005007002054070020B806002004ED00E081
:101EC00010B5044690F8513033B9006B00F0F0FBC8
:101ED000204600F0EDFB10BD012B0AD0022BFAD0FA
:101EE0004FF0500383F31188BFF36F8FBFF34F8F11
:101EF000FEE700F0DDFBEEE70F4B1B68D3B110B53A
:101F000000F080FC0D4BDB68DC68201DFFF7E0FE75
:101F10000B4A1368013B1360074A1368013B1360C7
:101F200000F092FC2046FFF7CBFF034B1B68002B11
:101F3000E6D110BD704700BF48070020B807002059
:101F40004407002008B5FFF7D7FF064B1B68012B9D
:101F5000F9D9054B4FF080521A60BFF34F8FBFF392
:101F60006F8FF0E7B806002004ED00E070B504467E
:101F70000E461D4B1D681D4B18680430FFF7A8FE68
:101F800050B91A4B1B68DA6A012303FA02F21849A6
:101F90000B6823EA02030B60B4F1FF3F13D02C441B
:101FA000124B1B685C60A54216D8124B18680F4B89
:101FB00019680431FFF772FE0F4B1B68A34212D958
:101FC0000D4B1C600FE0002EE9D0084B196804315E
:101FD0000A48FFF757FE06E0094B1868034B1968DB
:101FE0000431FFF75BFE70BDCC070020AC0600207B
:101FF00054070020B006002080070020A40700201E
:10200000B406002070B586B00B9D0C9C45B94FF00E
:10201000500383F31188BFF36F8FBFF34F8FFEE739
:1020200044B94FF0500383F31188BFF36F8FBFF3B0
:102030004F8FFEE754260496049E542E08D04FF08E
:10204000500383F31188BFF36F8FBFF34F8FFEE709
:10205000049E2563022584F85150002503950294BF
:1020600005AD01950A9D0095FFF75CFE2046FFF740
:10207000D3FE059806B070BD2DE9F04385B0074644
:10208000884615469946900000F088FA08B306463F
:10209000542000F083FA0446B8B10663E4B100238B
:1020A00084F85130039302940D9B01930C9B009391
:1020B0004B462A4641463846FFF734FE2046FFF796
:1020C000ABFE012005B0BDE8F083304600F0F0FA29
:1020D000E4E74FF0FF30F5E74FF0FF30F2E70000A4
:1020E00010B588B000240594069407AA06A905A88F
:1020F000FEF780FA059B0293069B0193009423460A
:10210000079A0D490D48FFF77DFF08B908B010BDCB
:102110004FF0500383F31188BFF36F8FBFF34F8FDE
:10212000074B4FF0FF321A60064B01221A60064B34
:102130001C6000F009FCE9E7FC2C0008451F0008C2
:1021400080070020A0070020CC070020024A136867
:1021500001331360704700BF4C070020F8B53A4BBD
:102160001B68002B69D1394B1D6801351D60C5B94D
:10217000374B1B681B6843B14FF0500383F3118842
:10218000BFF36F8FBFF34F8FFEE7314A1168314BBA
:10219000186810601960304A136801331360FFF744
:1021A000ABFD2E4B1B68AB423DD900242C4B1B686A
:1021B000DB6A03EB83039A002A4B9B58012B00D95F
:1021C0000124294B1B68002B3CD001243AE0012458
:1021D0001F4B1B681B6843B31D4B1B68DB68DE6825
:1021E00073689D4226D3371D3846FFF771FDB36AE9
:1021F0001BB106F11800FFF76BFDF36A01229A404C
:102200001A49086802430A6003EB83039A003946BF
:1022100014481044FFF736FDF26A114B1B68DB6A65
:102220009A42D4D2D4E70024D2E70C4B4FF0FF32CD
:102230001A60BBE7094A1360B8E70D4A1368013317
:10224000136000242046F8BD4C070020CC07002076
:10225000B0060020B406002084070020800700207C
:10226000AC060020B8060020D0070020540700204C
:102270008807002038B5334B1B6843B94FF0500333
:1022800083F31188BFF36F8FBFF34F8FFEE700F02A
:10229000B9FA2C4B1A68013A1A601B68002B4DD111
:1022A000294B1B6823B9002400F0CEFA204638BD24
:1022B0000024264B1B681BB3244BDB68DC6804F14D
:1022C0001800FFF705FD251D2846FFF701FDE36A0D
:1022D00001229A401E49086802430A6003EB830307
:1022E0009A0029461B481044FFF7CCFCE26A1A4BBF
:1022F0001B68DB6A9A42DCD3184B01221A60D8E7CC
:102300000CB1FFF7F9FC164B1C6854B1FFF726FF20
:1023100010B1124B01221A60013CF7D1104B002280
:102320001A600E4B1B685BB10E4B4FF080521A6067
:10233000BFF34F8FBFF36F8F0124B5E70024B3E7DE
:102340000024B1E74C070020440700208C07002040
:1023500054070020B8060020AC060020D00700205B
:102360008807002004ED00E010B5A8B104460F4B2B
:102370001B6843B14FF0500383F31188BFF36F8F95
:10238000BFF34F8FFEE7FFF7E1FE00212046FFF786
:10239000EDFDFFF76FFF38B9054B4FF080521A6023
:1023A000BFF34F8FBFF36F8F10BD00BF4C070020EE
:1023B00004ED00E0204B1B681BB1204B01221A608A
:1023C00070471E4B00221A601D4B1B68B3FA83F343
:1023D000DBB2C3F11F0303EB83018A0019498A585A
:1023E00042B94FF0500383F31188BFF36F8FBFF3EF
:1023F0004F8FFEE710B413489A00D418A10001448F
:102400004C6864684C601A44910008310844844266
:102410000BD003EB83039A000A4B13445B68DA6822
:10242000094B1A605DF8044B704761680548142237
:1024300002FB03025160ECE74C070020D0070020AC
:1024400054070020B8060020AC060020842801D0E4
:10245000033070470020704708B5FFF741FE0020A9
:1024600008BD2DE9F04387B004460F464569A5B184
:10247000866996B1D0F80480D0F80090B0F90800D1
:10248000FFF7E4FF22690296019500903B4649461A
:102490004046FFF7B7FD059013E065682668D4F85D
:1024A0001080B4F90800FFF7D1FF05AB019300904D
:1024B0003B461FFA88F231462846FFF7DDFD01282A
:1024C00003D1059807B0BDE8F0830020FAE708B50E
:1024D000034600B901231846FFF746FF002008BD58
:1024E000124A12F0070F1ED0D11D21F00701C1F5CD
:1024F000705313440A460E480260002141601344A1
:10250000083B23F007030B48036059601960991AD0
:1025100051601360084B1960084B1960084B4FF06D
:1025200000421A6070474FF47053E4E7D807002068
:10253000EC430020D4070020E0430020DC430020CF
:10254000D843002010B4134B1A6882421BD3596839
:102550005C18844203D140680144596018464168C0
:102560004418A24213D10C4C2468A2420DD05268E8
:10257000114441601A6812680260984200D01860E5
:102580005DF8044B70471346DEE70460F5E7026030
:10259000F3E700BFEC430020D407002070B50446E9
:1025A000FFF7D4FD3C4B1B68BBB13C4B1B681C4286
:1025B00067D1ACB1083414F0070F11D024F0070430
:1025C000083404F007035BB14FF0500383F3118824
:1025D000BFF36F8FBFF34F8FFEE7FFF781FFE4E795
:1025E000002C50D02E4B1B68A3424ED32D4B1D68A0
:1025F00001E02B4615466A68A24202D22A68002AE8
:10260000F7D1254A1268AA4241D01E6808362A68C6
:102610001A606B681B1B102B10D9281910F0070FBC
:1026200008D04FF0500383F31188BFF36F8FBFF3CF
:102630004F8FFEE743606C60FFF784FF6A681849BC
:102640000B689B1A0B60184909688B4201D2164926
:102650000B60124B1B6813436B6000232B60134A03
:10266000136801331360FFF705FE16F0070F10D053
:102670004FF0500383F31188BFF36F8FBFF34F8F79
:10268000FEE70026EFE70026EDE70026EBE7002651
:10269000E9E7304670BD00BFD4070020D8430020D2
:1026A000DC430020EC430020E0430020E443002012
:1026B000002834D038B50446A0F1080550F8042CA1
:1026C000174909680A4208D14FF0500383F3118873
:1026D000BFF36F8FBFF34F8FFEE750F8080C40B188
:1026E0004FF0500383F31188BFF36F8FBFF34F8F09
:1026F000FEE722EA010244F8042CFFF727FD54F814
:10270000041C084A13680B4413602846FFF71AFF9D
:10271000054A136801331360FFF7ACFD38BD7047FD
:10272000D8430020DC430020E843002082B000238F
:1027300001930D4B1B68B3F1FF3F08D04FF05003DE
:1027400083F31188BFF36F8FBFF34F8FFEE74FF016
:10275000500383F31188BFF36F8FBFF34F8F019B3B
:10276000002BFCD002B070470C0000200848006825
:10277000006880F308884FF0000080F3148862B688
:1027800061B6BFF34F8FBFF36F8F00DF00BF000054
:1027900008ED00E0DFF80C00016841F47001016011
:1027A0007047000088ED00E04FF0807340F8043C73
:1027B00021F0010140F8081C054B40F80C3C40F8A2
:1027C000202C6FF0020340F8243C4438704700BFCF
:1027D0002D2700080000000000000000000000009D
:1027E000074B19680868B0E8F04F80F30988BFF319
:1027F0006F8F4FF0000080F311887047AFF30080B7
:10280000AC0600204FF0500383F31188BFF36F8FA5
:10281000BFF34F8F0A4A136801331360012B00D0B6
:102820007047084B1B6813F0FF0FF9D04FF05003AF
:1028300083F31188BFF36F8FBFF34F8FFEE700BFA5
:102840000C00002004ED00E0094B1B6843B94FF079
:10285000500383F31188BFF36F8FBFF34F8FFEE7F1
:10286000013B034A13600BB983F31188704700BF23
:102870000C0000200000000000000000000000002C
:10288000EFF30980BFF36F8F154B1A681EF0100F1E
:1028900008BF20ED108A20E9F04F10602DE90900F3
:1028A0004FF0500080F31188BFF34F8FBFF36F8F4D
:1028B000FFF780FD4FF0000080F3118809BC196814
:1028C0000868B0E8F04F1EF0100F08BFB0EC108A97
:1028D00080F30988BFF36F8F704700BFAFF30080AC
:1028E000AC06002008B54FF0500383F31188BFF306
:1028F0006F8FBFF34F8FFFF731FC18B1034B4FF0D1
:1029000080521A60002383F3118808BD04ED00E0B3
:10291000084A0023136008490B60084B1B680849EC
:10292000A1FB03139B09013B06490B6007231360BE
:10293000704700BF10E000E018E000E00800002051
:10294000D34D621014E000E03A4B1A683A4B9A42B9
:102950000DD0384B1A68394B9A4211D14FF05003C1
:1029600083F31188BFF36F8FBFF34F8FFEE74FF0F4
:10297000500383F31188BFF36F8FBFF34F8FFEE7D0
:1029800010B582B02E4B1A78D2B20192FF221A7083
:102990001B78DBB28DF803309DF8033003F0500351
:1029A000284A1370284B07221A6009E0264A136848
:1029B000013B13609DF803305B00DBB28DF8033000
:1029C0009DF8033013F0800FF0D11F4B1B68032BD1
:1029D00008D04FF0500383F31188BFF36F8FBFF31C
:1029E0004F8FFEE71B0203F4E063174A1360019B5D
:1029F000DBB2134A1370154B1A6842F470021A6066
:102A00001A6842F070421A60FFF782FF0024104BF0
:102A10001C60FFF7BFFE0F4A136843F0404313608A
:102A2000FFF7A4FEFFF7C6FCFFF780FE204602B0CA
:102A300010BD00BF00ED00E071C20F4170C20F4138
:102A400000E400E0F4430020F843002020ED00E023
:102A50000C00002034EF00E0DFF834D00D480E49C0
:102A60000E4A002302E0D458C4500433C4188C42E8
:102A7000F9D30B4A0B4C002301E013600432A2424D
:102A8000FBD3FFF7E7F800F011F8FDF77FFD704783
:102A900000000220000000203C0400201C2D000843
:102AA0003C04002038450020FEE7000070B50D4EC4
:102AB0000D4D761BB61006D00024013455F8043BAA
:102AC0009847A642F9D1094E094D761B00F0EAF865
:102AD000B61006D00024013455F8043B9847A642AE
:102AE000F9D170BD102D0008102D0008182D000818
:102AF000102D0008F0B4860743D0541E002A3ED0A3
:102B0000CAB2034602E014F1FF3438D303F8012BB4
:102B10009D07F8D1032C2BD9CDB245EA05250F2C02
:102B200045EA054516D9A4F110073F0903F120062F
:102B300006EB071603F1100242E9045542E902557B
:102B40001032B242F8D104F00F040137032C03EB2A
:102B500007130DD91E462246043A032A46F8045BA1
:102B6000FAD8221F22F003020432134404F00304B3
:102B70002CB1C9B21C4403F8011B9C42FBD1F0BC30
:102B8000704714460346C5E7024B13B1024800F0F4
:102B900005B8704700000000A92B0008002301467B
:102BA0001A46184600F01EB838B50A4C0A4D641B88
:102BB000A4100AD004F18043013B05EB8305013CDE
:102BC00055F804399847002CF9D1BDE8384000F099
:102BD0006FB800BF1C2D0008182D0008704700BFFB
:102BE000704700BF2DE9F8432B4D064628689846EC
:102BF0000F469146FFF7F2FF284B1C68D4F8483186
:102C0000002B3DD05A681F2A0DDC02F1010C16BBC7
:102C10000232C3F804C0286843F82270FFF7E0FFCF
:102C20000020BDE8F8831E4B7BB34FF4C870AFF3B0
:102C30000080034648B3D4F848210021C0E90021B0
:102C40004FF0010CC4F848010A46C0F88811C0F8DA
:102C50008C11002EDCD003EB82010124C1F8889096
:102C6000D3F8880194402043022EC3F88801C1F8AC
:102C70000881CDD1D3F88C110C43C3F88C41C7E740
:102C800004F5A673C4F84831BCE72868FFF7A8FF2D
:102C90004FF0FF30C5E700BF38040020042D0008C6
:102CA00000000000F8B500BFF8BC08BC9E467047A5
:0C2CB000F8B500BFF8BC08BC9E46704799
:102CBC00D82C0008E9050008000000000000000006
:102CCC0080000000000000000000000064656661E8
:102CDC00756C745461736B00000000000000000000
:102CEC0001020304060708090000000001020304A6
:0C2CFC0049444C4500000000100000207E
:082D0800F8D4FF7F0100000078
:082D1000892B0008B501000841
:042D1800910100081D
:102D1C0001000000100000000024F400AAAAAAAAD6
:102D2C0000000000FC02002064030020CC03002003
:102D3C000000000000000000000000000000000087
:102D4C000000000000000000000000000000000077
:102D5C000000000000000000000000000000000067
:102D6C000000000000000000000000000000000057
:102D7C000000000000000000000000000000000047
:102D8C000000000000000000000000000000000037
:102D9C000000000000000000000000000000000027
:102DAC000000000000000000000000000000000017
:102DBC000000000000000000000000000000000007
:102DCC0000000000000000000100000000000000F6
:102DDC000E33CDAB34126DE6ECDE05000B000000BB
:102DEC0000000000000000000000000000000000D7
:102DFC0000000000000000000000000000000000C7
:102E0C0000000000000000000000000000000000B6
:102E1C0000000000000000000000000000000000A6
:0C314C00000000000000000014450020FE
:0400000508002A596C
:00000001FF
